:020000040000FA
:020000001028C6
:100020000301C001850183160301850083120301CA
:1000300085002C202C202C20FF3085002C202C200B
:100040002C204008013E1F39C0003320FF3A8500B4
:100050002C202C202C202128C101C201C20B2E28CB
:10006000C10B2D280800820701340134013401340A
:1000700001340134013403340334033403340334CE
:1000800003340234023402340234023402340234BF
:100090000634063406340634063406340434043494
:1000A0000434043404340434043404340434043490
:0600B000043404340434A2
:02400E00C43FAD
:00000001FF
