:020000040000FA
:020000001028C6
:100020000301C001850183160301850083120301CA
:1000300085002C202C202C20FF3085002C202C200B
:100040002C204008013E1F39C0003320FF3A8500B4
:100050002C202C202C202128C101C201C20B2E28CB
:10006000C10B2D2808008207023402340234013407
:1000700001340434043404340234023402340134CC
:1000800001340434043404340234023402340134BC
:1000900001340434043404340234023402340134AC
:0800A00001340434043404347B
:02400E00C43FAD
:00000001FF
